S01500005A334E637048774D4731763636302E7333379B
S31500004000201C002069EB0000BDA80000C1A800002C
S31500004010A70A0A010041000004180FAC006645001B
S31500004020000000000000000000000000000000008A
S3150000403000000000E810030000000000000000007F
S315000040400000000000000000FFFFFFFFFFFFFFFF72
S31500004050FFFFFFFF007003000000000000000000EB
S31500004060FFFFFFFFFFFFFFFF100000000000000042
S31500004070000000000000000000000000000000003A
S315000040800000000000000000743600207436002096
S31500004090201C0020443A0300CC0D0300C01200206F
S311000040A08F120020000004000000000049
S31500004100201C002069EB0000BDA80000C1A800002B
S31500004110C9A80000C5A80000CDA8000067EB0000F4
S3150000412067EB000067EB000067EB000067EB000041
S31500004130D1A8000067EB000067EB000067EB00000A
S3150000414045590000FD4B010001AD0000314701005B
S31500004150694C0100094C0100214C0100014C010091
S315000041608150000055510000316B00008DC00000E9
S3150000417054AA000054AA0000F542000054AA000008
S3150000418054AA00007951000054AA000054AA000065
S3150000419054AA000054AA000054AA000054AA000021
S315000041A054AA000054AA000054AA00006D4C010055
S315000041B0054C0100D1560000AD4C010054AA000088
S30D000041C0CD35010054AA0000F0
S315000041C8F8B500BFF8BC08BC9E467047F8B500BFF6
S315000041D8F8BC08BC9E46704710B5054C237833B921
S315000041E8044B13B10448AFF300800123237010BDBC
S315000041F824210020000000003835030008B5034BD1
S315000042081BB103490348AFF3008008BD0000000056
S315000042182821002038350300154B002B08BF134B07
S315000042289D46A3F5803A00218B460F461348144A4B
S31500004238121A2CF0B4FD0F4B002B00D098470E4BEA
S31500004248002B00D098470020002104000D000D48DF
S31500004258002802D00C48AFF300802CF071FD200036
S31500004268290015F02DFB2CF057FD00BF00000800B3
S31500004278201C00200000000000000000242100206F
S3150000428874360020000000000000000070B5134CD2
S315000042988A00A31822449B781D09062D98BF104E44
S315000042A803F00F0394BF755DFF25062B05719ABFB2
S315000042B80C4DEB5CFF234371FF3B18BF0123837151
S315000042C8D37014F82130084C437053788370014634
S315000042D8204602F09FFC0123A36070BD4021002008
S315000042E8131003000C100300002000407FB522497C
S315000042F822480022FF23CDE901228DF809300378F0
S315000043084C6C8D6B03922C40E407DBB228D5022B4C
S3150000431826D88C6C1A4901EB8301A5B2CE781949C7
S3150000432806B326041ED521F813201749012202FADE
S3150000433803F30A781343154A0B701378CBB100239D
S315000043481478DC40E407D9B20FD50170107801243F
S3150000435804FA03F34340DBB201A81370FFF796FF94
S3150000436804B070BD21F81350DFE70133032BE7D102
S31500004378F6E703230370F3E7002000404C210020F2
S3150000438840210020502100204E2100204D210020F0
S3150000439800207047002814BF022000207047012023
S315000043A8704701207047012814BF0220002070477B
S315000043B8012070472DE9F84F184E80460D461446E1
S315000043C8994606F1010A0DB9BDE8F88F102D4FF090
S315000043D80D02494650462F4628BF102706F038FBDF
S315000043E8012333700D48F4730023B373013428F0A6
S315000043F8D1F80B495FFA87FBE4B2424612F8013B53
S3150000440811F8010F434002F8013CA2EB0803DBB2A6
S315000044185B45F3D3ED1BADB29046D4E75A21002095
S31500004428592100202DE9F04F374D85B01746BDF8C4
S315000044383880019003930D220F9B02930E46014686
S31500004448681C06F005FB49232B7028464FEA1823FB
S31500004458AB7385F80F8028F09DF82B7883EA17232D
S315000044682B706B784FF002097B406B704C46AA465E
S315000044784FF0000B21E0C4F1100CA7EB0B031FFA59
S315000044888CFC9BB2634528BF63463046A11B00EBF4
S31500004498010C5FFA8CF2A0EB060C1FFA8CFC9C450B
S315000044A81BD31C44E4B29B44102C1E441FFA8BFBFE
S315000044B803D1284628F06EF80024BB45DBD314B197
S315000044C8504628F067F8B9F1010F4FF00004039E33
S315000044D847460BD04FF00109CAE710F801CB1AF886
S315000044E802E08CEA0E0C0AF802C0D0E702980649E8
S315000044F8042206F0ADFA019B02982246042105B073
S31500004508BDE8F04FFFF756BF5A210020F7B5099FBF
S31500004518BDF82040CDE9004706461D46FFF782FF55
S315000045282CB13346012221462846FFF743FF0020D7
S3150000453803B0F0BD2DE9F743BDF828700F4C1E46B1
S315000045480546884691460346394630460122FFF716
S3150000455831FF33464A4641462846CDE90074FFF7FF
S3150000456861FF042221460B9806F0D5FA002814BFED
S315000045787E20002003B0BDE8F08300BF562100204E
S315000045882DE9F3410A4F0C46991815461E468046F2
S3150000459821443846042206F05BFACDE90067631920
S315000045A82A4621464046FFF7C5FF02B0BDE8F0811E
S315000045B86A210020002070470120704701207047BB
S315000045C80020704701207047002070470020704780
S315000045D801207047002070470120704770477047D8
S315000045E8002814BF022000207047002070470000F2
S315000045F810B5104C1049A161032321660F491022FA
S31500004608C4E904330E4BE361C4E9191200230D49CA
S31500004618A362E01D6362E3622367E366636722625F
S315000046282CF0C5FB084920462CF0C1FB2023A371BA
S3150000463810BD00BF003000201A1003006E210020B4
S315000046487E21002023100300271003002DE9F84FD0
S315000046581F4B16461A7881468A4698460AB9FFF7C6
S31500004668C7FF182707FB09873D6FD7F86CB05D456C
S315000046782BD9BC6E796E641BB44228BF34462944D4
S31500004688504622462CF080FBBB6E2544A244361BBE
S31500004698AB4208BF0025ABEB050B5E4528BF5E465F
S315000046A856B1182303FB09833246596E50462944EE
S315000046B82CF06AFB3444354424B1182303FB0988DB
S315000046C8C8F870502046BDE8F88F0024E3E700BF1D
S315000046D800300020F8B504460E46174602F0B1FE33
S315000046E83A46054631462046FFF7B0FF04462846B7
S315000046F802F0ADFE2046F8BD2DE9F843124D1E46E0
S315000047082B788146884617460BB9FFF771FF02F0EA
S3150000471898FE696900244FF0180C0CFB04535A6E76
S315000047282AB10134A142F8DC4FF0FF3407E0A14278
S31500004738FADDC3E918989F661A67DA665E6702F0BB
S3150000474886FE2046BDE8F88300300020FFF750BFFC
S31500004758012270B51146042002F0F2FC1A4B1B4DDB
S315000047681A681B4842F001021A60DA684FF0604482
S3150000477842F08072DA60174BC4F8B03F0026022375
S31500004788C4F8006EC4F8806EC5F8F03002F000FC7C
S3150000479800F5D520104B114A00F2FC40B0FBF3F0AF
S315000047A80F4B01382861C4F8406E1A600D4BC4F8E7
S315000047B8803E4FF48073C5F80433D4F8003E43F4C2
S315000047C88073C4F8003E70BDF0ED00E0000004E020
S315000047D806000E0055CEACC5F8590D00FF03004083
S315000047E8001000E00D00010010B50121104802F08C
S315000047F8EFFA104B01241C60002003F03DFA234613
S3150000480804220221052003F08FFA204618F034FC12
S31500004818FFF79EFF18F036FCFFF798FF2346402265
S3150000482805490648FFF768FF054B1860C00F10BD1D
S3150000483800250A00108814428E2100202E1003003D
S31500004848281C0020024B1868003018BF012070474A
S31500004858F0ED00E0054A4170D12303701378C37068
S31500004868090A8170591C117004207047CE21002056
S315000048782DE9F84F2E4F3B681C5C032C804655D912
S315000048880AF0B5FA0534DFF8ACA0E4B281464FF673
S31500004898FF7B0025DAF800304BB1AC4207D90AF0A5
S315000048A8A6FAA0EB090080B2B0F5FA7F04D9601B1E
S315000048B818BF0120BDE8F88F9DB3012D15D13B68BF
S315000048C813F8085002264FF06043D3F8802ED1071C
S315000048D809D5D3F8002ED20505D519460A6A002A45
S315000048E8FCD083F820503546D4E7E31E6E1C9D4263
S315000048F8F6B202D15FFA8BF5E5E7A31E9D4202D117
S31500004908CBF30725DFE7631E9D420DD0A91EC9B26A
S3150000491840461FF067FC5946054605F061FF834689
S31500004928D1E75B250126CEE75D25CCE70120C1E767
S31500004938B81C0020F0ED00E010B50B4B90B04022FB
S3150000494869461868FFF7C6FE58B1C1B268461FF037
S31500004958D3FB04460146122010F014FB20461FF034
S315000049686FFA10B010BD00BF281C002070B516469F
S3150000497885180AB9304470BD01F00F030A2B34BFFD
S31500004988302437242344013A090905F8013DD2B2F7
S31500004998EFE70000F0B5F9B100281CDA2D23B0F1D5
S315000049A8004F137000D04042012115E0801B86425B
S315000049B8ECB205F10105F9D904B927B14D1C30341B
S315000049C854540127E9B20133092B09D13030505428
S315000049D80131C8B2F0BD00210023DFF80CC01F4624
S315000049E85CF823600025E2E7401003002DE9F04F4C
S315000049F895B04FF0000B02AC81468A4617461D4615
S31500004A085E46A0463B7863B902ABE41AE4B2224696
S31500004A1819465046C847002840F093803444E0B20F
S31500004A2890E0252B13D0BBF1000F14D1237001346D
S31500004A3812AB9C426DD3A4EB0804E4B2224641466D
S31500004A485046C84700287CD12644F6B260E0BBF140
S31500004A58000F00D101373B78632B00F092801BD8FA
S31500004A68392B09D8302B80F09E80002BCCD0252BF3
S31500004A7851D04FF0000BDBE7582B00F08B80622BF0
S31500004A88F7D12B6801936B6800934FF0000B009BDE
S31500004A989B4543D10835ECE7702B1ED017D8642BFD
S31500004AA801D06C2BE5D16C2B05F1040B28686CD171
S31500004AB87B78752B14BF0121002101D0642B00D10E
S31500004AC801372246FFF766FF04445D46D1E7752B9A
S31500004AD8E9D0782B5ED0732BCBD1A4EB0804E4B2D3
S31500004AE8224602A9504605F1040B2D68C84740BB6B
S31500004AF82644F6B2C4B201302B5D002BFAD1224609
S31500004B0829465046C847E0B926445D46F6B283466C
S31500004B184446013776E723700134AAE7019B20460D
S31500004B2813F80B100222FFF721FF12AB9842044636
S31500004B380ED3A0EB0804E4B2224641465046C847C5
S31500004B4818B1002015B0BDE8F08F2644F6B24446E9
S31500004B58009B013B5B4582BF20232370013412ABC7
S31500004B689C420BD3A4EB0804E4B2224641465046C5
S31500004B78C8470028E5D12644F6B244460BF1010B96
S31500004B8885E72B6823700435C6E7752B0CBF002113
S31500004B98012196E7204602222978FFF7E7FE05F16C
S31500004BA8040B044691E77A7802F0DF02582A19D1F5
S31500004BB8322B07F1010B09D129882F1D0422204623
S31500004BC8FFF7D4FE3D4604465F4652E7342B09D12B
S31500004BD82F1D2D680422290C2046FFF7C7FE042244
S31500004BE8A9B2EDE74FF0010B22E700002DE9F04FDF
S31500004BF89B46584B85B01B78109F9DF844A0DDF85E
S31500004C085080064689461546002B00F09280072AF2
S31500004C1800F291800E9B002B00F08D800F9B002BDD
S31500004C2800F08980129BB3F5006F00F38480012899
S31500004C3801D1002F7FD0484B03EB05131B7B002BBC
S31500004C487BD0464C1022002168462CF0A8F804EBCD
S31500004C5845141022B9F1000F5CD1494620462CF0C4
S31500004C689EF8A37843F01003A370E37843F030036B
S31500004C78E370BAF1000F03D1DBB243F00303E3702C
S31500004C883649129BCDF800B06A01013B885A01EB00
S31500004C98020C63F30E1088520E9BCCF808300F9B5B
S31500004CA8CCF804309DF84C109CF80330012E61F3C3
S31500004CB883038CF8033042D11323CCF80C309CE8DC
S31500004CC80F000CF1100E8EE80F00DCF81C20CCF853
S31500004CD814706FF0030161F39F02B9F1010FCCF86C
S31500004CE81C2004D10F9BCCF81830CCF804701A4954
S31500004CF82A018B1841F802800027159A5A6028461F
S31500004D089F605E732246694603F09CF8384605B0F4
S31500004D18BDE8F08F002120462CF041F81023A3703F
S31500004D280323E370BAF1000FAAD1DBB243F03003D4
S31500004D38A5E70B48EBE70B48E9E70B48E7E7B8F1C7
S31500004D48000FD4D19CF8023068F304138CF80230B3
S31500004D58CDE700BF50230020D0210020502200209C
S31500004D68028000F0018000F0078000F038B5104B93
S31500004D781B780546BBB1C0B102F063FB0D490023A1
S31500004D8801EB0312147B3CB92B60012313731460E7
S31500004D9802F05DFB204638BD0133082BF0D102F046
S31500004DA856FB0548F7E70548F5E70548F3E700BF6A
S31500004DB850230020D0210020048000F0028000F05B
S31500004DC8018000F038B502F03CFB0B4A054600238B
S31500004DD8D1180C7B5CB91033802BF9D102F0E6FFB1
S31500004DE8064B28461C7002F032FB204638BD284682
S31500004DF802F02DFB0248F9E7D021002050230020BD
S31500004E08058000F00D4B1B7810B5044693B10728B2
S31500004E1812D802F016FB0A4B03EB04131A7B2AB1CD
S31500004E2800241C7302F013FB204610BD02F00FFB92
S31500004E380448FAE70448F8E70448F6E75023002050
S31500004E48D0210020068000F0028000F0018000F0EA
S31500004E5813B5164B1868019000238DF8043002F03C
S31500004E68F0FA134B1C7824B102F0F1FA114802B09B
S31500004E7810BD01221A7002F0EAFA0F4B1C731C7758
S31500004E8883F82C4083F83C4083F84C4083F85C4018
S31500004E9883F86C4083F87C4004230DEB03008DF8FF
S31500004EA8073002F0A3FF2046E1E700BF64100300C5
S31500004EB850230020038000F0D021002010B588B0D0
S31500004EC80E9C07940D9C06949DF8304005940B9C07
S31500004ED804949DF8284003940024CDE901340092F7
S31500004EE80B46024621462046FFF780FE08B010BD55
S31500004EF810B588B00E9C07940D9C06949DF830401A
S31500004F0805940B9C04949DF8284003940024CDE94D
S31500004F18013400920B46024601212046FFF766FE41
S31500004F2808B010BD08B50A4B1B785BB107280BD82B
S31500004F38084B03EB00131B7B43B1002102F04CFF27
S31500004F48002008BD0448FCE70448FAE70448F8E7E7
S31500004F5850230020D0210020028000F0018000F0BC
S31500004F68078000F008B50A4B1B785BB107280BD8F9
S31500004F78084B03EB00131B7B43B1012102F02CFF06
S31500004F88002008BD0448FCE70448FAE70448F8E7A7
S31500004F9850230020D0210020028000F0018000F07C
S31500004FA8078000F008B50A4B1B7853B107280AD8C2
S31500004FB8084B03EB00131B7B3BB102F095FF002067
S31500004FC808BD0548FCE70548FAE70548F8E700BFC5
S31500004FD850230020D0210020028000F0018000F03C
S31500004FE8078000F00D4B1B7893B1072812D889B1BA
S31500004FF80B4B03EB00131B7B73B10A4B1A6A012395
S3150000500803FA00F010401ABF00200B7008707047B2
S3150000501805487047054870470548704750230020E3
S31500005028D021002000200E40028000F0018000F010
S31500005038078000F00B4B1B7810B50C4663B10728A8
S315000050480CD859B1084B03EB00131B7B43B102F094
S3150000505861FF2060002010BD0448FCE70448FAE719
S315000050680448F8E750230020D0210020028000F0F1
S31500005078018000F0078000F02DE9F843174E326EE4
S31500005088F36E12EA030800D5FEE7154CDFF85490D4
S315000050980127002518EA070F16D02368B7669BB1C3
S315000050A8A16862680131A16028469847637B012B95
S315000050B80AD148B909EB4513197B1A7F60F34101F8
S315000050C860F3410219731A770135082D4FEA47072D
S315000050D804F11004DED1BDE8F88300BF00200E40BD
S315000050E8D02100205022002070B5094E0446012523
S315000050F804B970BD94FAA4F0B0FA80F005FA00F38A
S3150000510824EA030456F82030002BF1D09847EFE73D
S3150000511854230020054B4FF40032C3F880211A604F
S315000051284FF40072C3F880211A60704700E100E06E
S3150000513838B504460D4602F084F9034B43F824506B
S31500005148BDE8384002F083B954230020074BD3F852
S315000051582804D3F81C24104020F42A5020F02A00F2
S315000051684004400CC3F82404FFF7BEBF00A000406B
S31500005178074BD3F82804D3F81C24104020F4AA407F
S3150000518820F055000004000CC3F82404FFF7ACBF58
S3150000519800A000402DE9F84F284C4FF0000A04F112
S315000051A8A00580464FF000094FF0010B237F84F8D5
S315000051B81DA06BB1D4E90023994508BF9045104658
S315000051C819460AD2B2EB080063EB0901C4E90001EB
S315000051D82834AC42EAD1BDE8F88FE37F33B92377A8
S315000051E8A369002BF4D084F81DB0F1E7D4E902676F
S315000051F8B8EB000069EB010132463B462BF00CFC8C
S31500005208B01A67EB030123696269002BC4E9000140
S315000052180BDD13441D2B6361E2D9461C41F10007DF
S315000052281E3BC4E900676361DAE7D31A1D2B636185
S31500005238D6D910F1FF3641F1FF37F1E7A823002050
S3150000524838B5074C0025637F1BB1A369216A284638
S3150000525898470135042D04F12804F4D138BD00BF60
S31500005268A8230020064B5A6A99690A40D20705D531
S3150000527801221A62034A136801331360704700BF9C
S315000052880020044048240020F0B5194E00214FF0B4
S31500005298FF324FF0FF337418257F3DB1D4E900453E
S315000052A89D4208BF94423CBF22462B462831A0297E
S315000052B8F1D1104900240C705C1C08BFB2F1FF3F05
S315000052C80C4614D000279F420B496FF0640608BFAE
S315000052D89642086038BF32460849042502440D62E2
S315000052E801234A6523704B6A43F004034B62F0BD01
S315000052F8A82300209C230020982300200020044097
S315000053080F4B1B7870B50546BBB102F09AF80D49EC
S315000053180023282606FB0312947F14B935B90A4CD4
S3150000532807E00133042BF5D1084C02E001219177FF
S315000053382B6002F08CF8204670BD054CFBE700BFD9
S315000053489D230020A8230020041000F0011000F07F
S31500005358061000F070B5204D2C78002C3AD10121AA
S315000053681E481F4E01F034FD03211E4801F068FF58
S3150000537801211D48347101F02BFD304602F09EFED6
S315000053881A49012002F080FE194B1A485A6A22F47B
S31500005398FF6222F007025A6240F2FF721A62164A48
S315000053A89C604FF00051C2F8801111605A6A42F0B1
S315000053B801025A622146A0222BF0F1FC0F4B1C7009
S315000053C80F4B1C700F4B1C600F4B1C600F4B1C6067
S315000053D801232B70002070BD9D23002000050A00C4
S315000053E82C1C002005002400A0091400351C0020F0
S315000053F800200440A823002000E100E094230020B8
S315000054089C230020A0230020482400204C240020B0
S315000054182DE9F74F93465C4A1278074689461E4699
S31500005428002A00F0AD80032800F2AC8002F009F8EB
S31500005438564A282404FB07248046A17F924629B9A8
S3150000544802F005F8524803B0BDE8F08FBBF1000F33
S3150000545808D116B10C993846B047404601F0F7FF17
S315000054680020F0E74B4A4FF4004C4FF4FA70002145
S315000054789568A6614FF47A720023ECFB0B012BF0BA
S31500005488CBFAB9F1010F02460B46C4E9022309D14A
S315000054984FF47A7303FB0BFB1E2303FB10B3236144
S315000054A80F236361282303FB07A301304FF0010292
S315000054B841F10001C3E900011A770C9A83F81F909D
S315000054C81A62354B1B78002BC7D1344C236801333D
S315000054D81EBF236801332360314B01931A78E2B962
S315000054E8304B2C4E1D600423336200236FF0640298
S315000054F88B4208BF824238BF104628447065736ADB
S31500005508019A43F004037362012313702368002B86
S31500005518A3D02368013B23609FE72368012BF5D1BD
S31500005528282303FB07A30026DFF86890DFF874B08A
S315000055381E77D9F8242022F00402C9F82420DBF8C3
S315000055480000281AFFF726FEFFF77AFE26B928225A
S3150000555802FB07A2012010772846FFF795FE114B9C
S31500005568D9F808501868D9F85420019BA5EB000C07
S31500005578121A187801360028C8D09445D9D2C5E73A
S31500005588094860E709485EE79D230020A823002014
S31500005598031000F00020044094230020A0230020DC
S315000055A89C23002098230020061000F0021000F02B
S315000055B82DE9F843264B1B7805460C46002B41D0AF
S315000055C8032841D8002941D001F03BFF214B28226E
S315000055D802FB05339A7F22B901F039FF1E48BDE860
S315000055E8F8831A7F1AB901F032FF1C48F7E7D3E9A6
S315000055F800671B4B9D681B4BD3F8008001F027FF03
S315000056080021A5EB08008F4208BF864215D3361A3B
S3150000561867EB0107B046B9464FF47A75A8FB052330
S3150000562812F5804005FB09334FEAD03243F10001F9
S3150000563842EA414222600020D1E74FF000084FF0CD
S315000056480009E9E70848CAE70848C8E70848C6E776
S315000056589D230020A8230020031000F0051000F069
S315000056680020044098230020061000F0021000F0E5
S31500005678041000F0F8B501F0E4FE084D084F2C6858
S31500005688BE68FFF7EFFD2B689C42F8D101F0DFFEFC
S315000056980022901944F10001F8BD00BF48240020FB
S315000056A8002004402DE910484FF47A74A0FB04BC8E
S315000056B81BF5804204FB01CC4CF10003D00B40EAF9
S315000056C84340BDE8108800002DE9F8431A4C01F064
S315000056D8B8FE626AA1690A4022F005015307054629
S315000056E8216221D5154AA768154EDFF85890012181
S315000056F811709046636A23F0040363623068381AAF
S31500005708FFF748FDFFF79CFD3846FFF7BDFD3268F9
S31500005718A768636DB91A9B1A99F800200AB19942CD
S31500005728E8D2002388F80030FFF79CFD2846BDE83C
S31500005738F84301F08CBE00BF0020044094230020EB
S31500005748982300209C230020044B1B6800EB800054
S31500005758A3EBE00080F30800704700BF5424002044
S31500005768174B402870B59C6824DD5028B4BF012328
S3150000577802231449144A154DDE00314403C982E850
S315000057880300134A324492E80300012C85E803001B
S3150000579803D10B4A4AF6E8519160012B0CD0022B33
S315000057A80CD0002002F036FA012C02D1044B00225C
S315000057B89A6070BD0023DCE70120F3E70220F1E7D9
S315000057C800300E405C2400209C240020CC240020BD
S315000057D874240020FFF7C4BF044B4FF04042DA623E
S315000057E81A6B22F040421A63704700BF00300E4021
S315000057F82C48F0B5002203682B4D114654592CB19C
S315000058081E68AC18002E36D1234601210832302AEC
S31500005818F4D101B103602549254E0B6800221446D0
S3150000582895592DB11F68B518002F2BD12B46012489
S315000058380832302AF4D104B10B6000681D4B0268A7
S3150000584842B3DA69007922F0FF020243DA611A6B81
S3150000585842F0804209681A630A68164BF2B1DA699F
S31500005868097922F47F4242EA0122DA611A6B42F090
S3150000587800421A63F0BD1E792779B74284BF2346D2
S315000058880121C3E71F7995F804C0BC453CBF2B46E8
S315000058980124CDE71A6B22F08042DBE71A6B22F06F
S315000058A80042E6E78C2400209C2400209024002057
S315000058B8CC24002000300E40064B186AC0B20523DF
S315000058C8C000B0FBF3F0044B1B68181A00F307007E
S315000058D840B2704700300E405824002010B5144CD2
S315000058E8226B616A0A4010D5124B1B681A682AB1E6
S315000058F8002119605960FFF7DFFF90474FF000431A
S31500005908E362BDE81040FFF773BF5300F9D50A4BB1
S315000059181B681A6832B1002119605960FFF7CCFF7D
S3150000592801219047024B4FF08042DA62E9E700BF57
S3150000593800300E40902400208C240020FFF7CEBFB4
S315000059482D4B37B501221A70002130222B482BF037
S3150000595826FA302200212A482BF021FA294A2A4B16
S3150000596813602A492A4A13600A684B6DC2F3074234
S31500005978FF2A02D0DBB2FF2B01D19023192202EBBA
S315000059888201244803EBD1010160DB000521B3FB4A
S31500005998F1F31344204A01A8136002F0C3FB9DF8F3
S315000059A80530012B1BD14120FFF7CEFE1B4C1C49AD
S315000059B8207139202160FFF7C7FE05465020FFF702
S315000059C8C3FE184A2073157391604820A160FFF73B
S315000059D8BBFE10751161FFF76FFFFFF7C1FEFFF7FA
S315000059E8FBFE114B0122C3F880211A60FFF700FF66
S315000059F8002003B030BD00BF502400209C240020A6
S31500005A08CC2400208C24002094240020B081E00FB0
S31500005A189024002054240020582400205C240020D0
S31500005A28DD5700007424002000E100E038B141B1E0
S31500005A38013AB2F5006F044838BF002070470348A2
S31500005A4870470148704700BF037000F0027000F00D
S31500005A580D490E4A0B7810B54BB9C2E90033C2E9B5
S31500005A68023301240C7042F82300002010BD0023E5
S31500005A7852F823100029F6D08142F4D00133042BC2
S31500005A88F6D10348F2E700BF0C250020FC240020CD
S31500005A98027000F038B504460D4601F0D2FCA28823
S31500005AA892B222B92A6001F0D2FC064838BD638852
S31500005AB8142202FB034308332B6001F0C8FC0020C4
S31500005AC8F4E700BF0B7000F038B504460D4601F048
S31500005AD8B8FCA3889BB223B92B6001F0B8FC0C482C
S31500005AE838BD6388E188142202FB034308332B6020
S31500005AF863885A1C92FBF1F301FB13239BB2638064
S31500005B08A388013B9BB2A38001F0A1FC0020E7E734
S31500005B180B7000F07FB5012380F82C3090F83230F6
S31500005B2893B90C4A036803920022049002924A68C9
S31500005B380192012200920A68016980681C33FFF706
S31500005B48D7F907B05DF804FB012BEAD0002380F8EB
S31500005B582C30F6E7AD6300007FB5012380F82D30C1
S31500005B6890F8323083B9026834320D4B0393002320
S31500005B78049002934B680193012300930B68C16854
S31500005B884068FFF79BF907E0012B02D1026828322B
S31500005B98EBE7002380F82D3007B05DF804FB00BF63
S31500005BA8AD5B0000F7B5906A01A91446FFF772FFCE
S31500005BB8144B984220D0019B00251D619D6001F081
S31500005BC840FC019AD668074626B1D2E90023294641
S31500005BD82046B04701A9A06AFFF776FFA06A838826
S31500005BE89BB263B101A9FFF755FF01992046FFF75C
S31500005BF8B3FF384601F02BFC012003B0F0BD84F852
S31500005C082D30F6E70B7000F0427E30235343044AEA
S31500005C181A44437F03EBC2039B001868C0B270475F
S31500005C281CA0104213B51D4A002352F82340617F79
S31500005C3881420ED00133042BF7D102B010BD0028E3
S31500005C48FBD19DF80730002BF7D06068FFF76AF99B
S31500005C58F3E794F83130022BEFD12046FFF7D4FF53
S31500005C68637D2075022BE8D194F82E3003F0FF02ED
S31500005C78002BE2D102A9606801F8012DFFF7B2F9FD
S31500005C88237D1BB194F82F30002BD8D0002384F83D
S31500005C982F306068FFF766F9CFE700BFFC240020C5
S31500005CA890F8323053B903680122DA601A69D007CE
S31500005CB8FCD55A6F42F001025A677047012B0CD186
S31500005CC803685A6C9107FCD401225A609A68D20775
S31500005CD8FCD55A6D42F001025A65704790F8323089
S31500005CE83BB903685A6F22F001025A670222DA604A
S31500005CF87047012B09D103685A6C9207FCD45A6D78
S31500005D0822F001025A6502225A60704710B504460D
S31500005D18FFF79EF80021201DFFF728F8014608B175
S31500005D28044810BD04F10800FFF720F80028F8D051
S31500005D38F6E700BF0E7000F0F8B5044617460D46A4
S31500005D4801F07FFBA388E2889A42064605D800231D
S31500005D583B6001F07CFB1648F8BD2388142202FB41
S31500005D680343083305F1100C2A4603CA6245186036
S31500005D785960154603F10803F6D1106818602388A0
S31500005D88E188142202FB034308333B6023885A1C2C
S31500005D9892FBF1F301FB13239BB22380A388013303
S31500005DA89BB23046A38001F052FB0020D4E700BF27
S31500005DB80A7000F073B504460D46C07DE67E0029DC
S31500005DC834D001230422314601F0AEFF012302221A
S31500005DD8217F207E01F0A8FF94F83130022B16D1DE
S31500005DE800230122617F607E01F09EFF00230422CA
S31500005DF8A07EA17F01F098FF0123627F607E019358
S31500005E080093114601F044FF002002B070BD032B39
S31500005E18FAD100230122617F607E01F085FF00230D
S31500005E280422A17FA07E01F07FFFEDE70B460A461C
S31500005E38314601F079FF2B462A46217F207E01F064
S31500005E4873FF94F83130022B10D12B462A46617F16
S31500005E58607E01F069FF2B462A46A07EA17F01F0ED
S31500005E6863FF627F607E01950123C9E7032BCBD1CF
S31500005E782B462A46617F607E01F056FF2B462A464E
S31500005E88CFE790F8323013B9036818697047012BC9
S31500005E981CD103689B6803F00200DA0748BF40F08C
S31500005EA80100590748BF40F008001A0748BF40F0EC
S31500005EB82000D90648BF40F040009A0648BF40F087
S31500005EC880005B0603D540F40050704700207047F9
S31500005ED82DE9F3410D460446002879D001F0B1FAC0
S31500005EE8012D06463BD1A36A9B889BB2002B3DD069
S31500005EF86068FFF757F80023A06A84F82D30838876
S31500005F089BB273B101A9FFF7C5FD01996068364FC9
S31500005F180831FFF78FF8019B1F61A06A83889BB23F
S31500005F2853BB2046FFF7ADFF8304FAD5023D012D8A
S31500005F3810D8A068FFF736F80023606A84F82C307A
S31500005F4883889BB23BBB94F83130032B02D02046A2
S31500005F58FFF7C4FE304601F07AFA002009E0022D68
S31500005F6838D1636A9B889BB2002BDFD101F06FFAA8
S31500005F781E4802B0BDE8F08101A9FFF7A5FD019B07
S31500005F88D3F80C80B8F1000FC7D09B6800223946B9
S31500005F982046C047C1E76946FFF77CFD0099A0681F
S31500005FA8114F0831FFF746F8009B1F61606A838826
S31500005FB89BB2002BC7D06946FFF786FD009BDD68BC
S31500005FC8002DF3D09B68002239462046A847EDE706
S31500005FD80748CEE7032DA9D1A36A9B889BB2002B5D
S31500005FE886D1636A80E700BF097000F0087000F088
S31500005FF8027000F0436A9888C0B270472DE9F341F1
S315000060080546406A84889846A4B200230E46174679
S31500006018CDE900333CB16946FFF73CFD01A90446CA
S31500006028A868FFF707F8009971B16CB94868019B31
S31500006038C01A3860C8F800300B6833602846FFF786
S3150000604820FF02B0BDE8F0810021C8F800103960D1
S315000060583160F3E7836A9888C0B270472DE9F34147
S315000060680546806A84889846A4B200230E461746D9
S31500006078CDE900333CB16946FFF70CFD01A904469A
S315000060886868FEF7D7FF009971B16CB94868019B3B
S31500006098C01A3860C8F800300B6833602846FFF726
S315000060A8F0FE02B0BDE8F0810021C8F800103960A2
S315000060B83160F3E7007D70472DE9F04104460E464E
S315000060C81746FFF7B3FC804650BB082001F0DEF9FF
S315000060D80546A26A93889BB213B194F82E3013B37F
S315000060E894F8322022BB23681D6915F0020533D0C7
S315000060F8012384F83030002A3FD13744BE42206855
S3150000610836D103699E06FCD555B994F83230002B72
S3150000611842D123685A6F22F002025A670822DA60CF
S315000061284046BDE8F081002DD4D0FEF7A5FFD0E7A4
S31500006138012A1BD123689D6815F00205D8D1596C30
S315000061488807FCD40421596099688907FCD5596DDC
S3150000615841F002015965CBE70421D960196989071D
S31500006168FCD5596F41F002015967C1E70025BFE721
S3150000617816F8011B02F014F9C0E7012AD0D13744FA
S31500006188B742206803D183681907FCD5BCE716F81F
S31500006198011B01F004FFF3E7012BC1D123685A6CF8
S315000061A89207FCD45A6D22F002025A6508225A60F8
S315000061B8B6E7000010B50446B0B190F82E3033B9F2
S315000061C890F83130022B0AD06068FEF7ABFE94F8DF
S315000061D82E300133DBB284F82E30002010BDFFF7D5
S315000061E813FD0028F3D1EFE70048F7E7027000F047
S315000061F810B50446D0B190F82E30CBB190F82E30B9
S31500006208012B06D190F83130022B0AD06068FEF7D0
S31500006218A9FE94F82E30013BDBB284F82E3000201C
S3150000622810BDFFF7F1FC0028F3D1EFE70148F7E7C7
S315000062380148F5E7027000F0057000F037B590F8F0
S315000062483150022D044618D1A37F407D01229A4081
S31500006258A37E30215943134B0B4410B903F18063D5
S3150000626803E0012805D103F1C0631A60002003B0DA
S3150000627830BD217D0029F6D1F0E7012DF6D1037D49
S3150000628873B911238DF80730FFF794FF2A460DF1ED
S3150000629807012046FFF710FF2046FFF7A9FFE5E7AD
S315000062A81323EFE70CA0004090F83130032B05D0FC
S315000062B80229417518BF0175FFF7C0BF004870472E
S315000062C8057000F010B5044600283AD00321FFF700
S315000062D8FFFD00212046FFF7E7FF00212046FFF7D4
S315000062E869FD94F8323003BB23680A22DA6000217C
S315000062F8206A00F06DFD94F83130032B03D000219D
S31500006308607FFEF715FF6068FEF77CFDA068FEF764
S3150000631879FDFEF757FD636A00201880588098803B
S31500006328A36A18805880988010BD012BDFD1206899
S3150000633801F021FE23685A6C9207FCD40A225A609F
S31500006348D5E70148F0E700BF027000F0F0B587B066
S3150000635804461646FFF76AFB0546F0B9CDE901166D
S3150000636804936A460E4B606A039601A90593FFF7E4
S31500006378E3FC054688B994F82C3073B92046FFF734
S315000063888FFC00992046FFF7C5FB94F83130032BA4
S3150000639803D025752046FFF751FF284607B0F0BD04
S315000063A8017000F073B5506A01A91446FFF772FB35
S315000063B8334B98422FD094F83200019B002836D1EF
S315000063C82268116C11F4007128D02E491961986061
S315000063D84FF40073936401F034F80199CD680646CA
S315000063E835B14A688B682046D31A0A680969A847EE
S315000063F801A9606AFFF768FB606A8588ADB2002D5F
S315000064082FD001A9FFF746FB01992046FFF782FB2B
S31500006418304601F01CF8012002B070BD106CC505AD
S315000064281BD51948186199604FF48073D2E7012883
S3150000643813D12268D16A11F0800106D01149196179
S315000064480021996080235363C5E7D06A400604D5C6
S315000064580D48186199604023F5E700221A619A6091
S31500006468B9E7012323752046FFF7E8FE94F8313093
S3150000647884F82C50032BCBD02046FFF72FFCC7E718
S315000064880B7000F00D7000F00C7000F02DE9F04173
S31500006498094F04460D460FCF88B001AE0FC697E8E0
S315000064A8070086E80700002C00F0348245B9034E41
S315000064B8304608B0BDE8F08178100300037000F09C
S315000064C83422002120462AF06AFC2046FFF7C0FA4B
S315000064D806460028ECD12B7C84F83130C64A2B6856
S315000064E82360934284F8320040F07B81C34B2362D9
S315000064F8C34BE3604FF440232361D5E90623002606
S31500006508626216805680968084F82C60A3621E808C
S315000065185E809E806B6803936B89ADF81430AB89F7
S31500006528ADF81230AB7B8DF810300121EB7BB54806
S3150000653884F82D6084F82F6005278DF816308DF8BD
S31500006548117000F045FC0121AF4800F041FC012123
S31500006558206A00F03DFC01A928688DF8046001F066
S31500006568E1FE28686A7A816F2B7ADFF88CC221F4FB
S31500006578F85121F01F01114341EA032181670321E4
S3150000658841672068604540F04781BB4216D9981F8D
S31500006598042840F25D81A3F10B00B84240F25A810B
S315000065A8A3F11100062840F25781A3F11801062924
S315000065B840F254811F2B14BFFF263E46042AE67577
S315000065C840F24E81511F042940F24C81A2F10A0182
S315000065D8052940F24981A2F11001062940F24681B7
S315000065E8A2F11701072940F243811F2A14BFFF2190
S315000065F800212176002B58D0012B56D0022B54D0DF
S31500006608032B52D0042B50D0052B4ED0062B00F06E
S315000066183981072B00F03881082B00F03781092BC8
S3150000662800F036810A2B00F035810B2B00F04081F3
S315000066380C2B00F01F810D2B00F01E810E2B00F095
S315000066481D810F2B00F01C81102B00F01B81112BD4
S3150000665800F01481122B00F01381132B00F0128125
S31500006668142B00F01181152B00F01081162B00F069
S315000066780F81172B00F00E81182B00F00D81192BB6
S3150000668800F00C811A2B00F00B811B2B00F00A81FD
S315000066981C2B00F009811D2B00F008811E2B00F031
S315000066A807811F2B0CBF0723FF23E376002A00F080
S315000066B81381012A00F01281022A00F01181032AAF
S315000066C800F01081042A00F00F81052A00F0F880F6
S315000066D8062A00F0F780072A00F0F680082A00F05C
S315000066E8F580092A00F0F4800A2A00F0FF800B2AB8
S315000066F800F0FE800C2A00F0DD800D2A00F0DC8018
S315000067080E2A00F0DB800F2A00F0DA80102A00F04B
S31500006718D380112A00F0D280122A00F0D180132AE1
S3150000672800F0D080142A00F0CF80152A00F0CE8021
S31500006738162A00F0CD80172A00F0CC80182A00F01F
S31500006748CB80192A00F0CA801A2A00F0C9801B2AB1
S3150000675800F0C8801C2A00F0C7801D2A00F0C680F9
S315000067681E2A00F0C5801F2A14BFFF2300232377A3
S315000067786B7C6376AB7C6377EB7CA3762B7DA37708
S3150000678801212046FFF716FB064600287FF490AE47
S3150000679800F057FE2F7C032F804640F0AB802B6815
S315000067A82A8CDA675A6E42F004025A665A6F42F029
S315000067B830025A6728684FF0FF3383642B7C032B1B
S315000067C80CBF0521042101F083FD2B684FF44062BC
S315000067D8DA602046FFF79AFA0646404600F037FE8A
S315000067E866E60A4A93427FF462AE094B2362094B76
S315000067F8E3604FF450237FE60000014000220400C6
S3150000680801000C004041050000250A000004014073
S315000068180032040001000D00DFF804C160457FF472
S3150000682846AE052B7FF6CAAE981F042810D9A3F1E9
S315000068380B0005280ED9A3F1110006280CD9A3F1DF
S31500006848180106290AD91F2B14BFFF260526B5E607
S315000068580126B3E60226B1E60E46AFE63E46ADE6AB
S315000068680021C6E60121C4E60221C2E60321C0E6EC
S315000068780521BEE6072318E7082316E7092314E7C8
S315000068880A2312E70B2310E70C230EE70D230CE768
S315000068980E230AE70F2308E7002306E7012304E788
S315000068A8022302E7032300E70423FEE60523FCE6AA
S315000068B80623FAE608235AE7092358E70A2356E780
S315000068C80B2354E70C2352E70D2350E70E234EE71C
S315000068D80F234CE700234AE7012348E7022346E74C
S315000068E8032344E7042342E7052340E706233EE75C
S315000068F807233CE7022F7FF45DAF607F0649FEF76A
S3150000690817FCFEF707FCA675267567752046FFF780
S3150000691895FC4FE7014ECBE52D5C0000027000F0B8
S315000069280004014090F83120012A10B5034610D121
S3150000693802290ED0827D8A4201D1002010BD9975A8
S3150000694811B9FFF755FCF8E70129F6D1FFF732FC34
S31500006958F3E70148F2E700BF057000F0F0B587B02D
S3150000696804461646FFF762F8054600BBCDE9011650
S3150000697804936A460F4BA06A039601A90593FFF78D
S31500006988DBF9054698B994F82D3083B900F059FD1E
S31500006998A36A9B889BB2064633B100992046FFF747
S315000069A8DBF8012384F83030304600F050FD2846E5
S315000069B807B0F0BD017000F070B588B00D22002157
S315000069C8294C2A4E04A82AF0EAF9002502230121B7
S315000069D827488DF81010CDE9015503958DF80A3032
S315000069E800F0F6F9294601AA204601F008FC4FF600
S315000069F8FF73E3618DF81250354604A9204601F06D
S31500006A08ABFB1C4800F0C4FA9DF81230D84001339D
S31500006A18DBB20A2B30608DF8123002D8164B98423A
S31500006A28EBD81648164C00F0B3FA1649B1FBF0F14C
S31500006A382868154A0025E1FB00450023204629461B
S31500006A4829F0EAFF114B084A1860114B002018700C
S31500006A58936923F0100393610E4B4FF48062C3F8D9
S31500006A6880211A6008B070BD008001401025002002
S31500006A78000204004041050080841E0070000200E8
S31500006A8820A1070000B0710B40420F00142500201A
S31500006A981825002000E100E01E4BF7B519681E4CCA
S31500006AA81E4A1F4E0025E0FB0145204629460023C5
S31500006AB829F0B2FFDFF86CC04FF6E85400254FF610
S31500006AC8E75E4FF0FF378D4208BF844211D380B28C
S31500006AD860B1144A516A89B2536A9BB2ADF806305E
S31500006AE8BDF806305B1A9BB29842F5D8002003B071
S31500006AF8F0BDDCF8242092B2DCF824309BB2ADF865
S31500006B080430BDF804309B1A9BB27345F4D980193A
S31500006B187941D8E71025002020A1070040420F0040
S31500006B281802FFFF00800140044BDA68D20604D53C
S31500006B3810225A61024B01221A70704700800140E8
S31500006B48182500202D4B002A70B52D4D446B08BF23
S31500006B581D462C4B14BF1026002698423AD102290E
S31500006B683FD004D8B9B1012921D000232DE0062948
S31500006B7831D0812935D00329F7D1234B1A681968F2
S31500006B881B68120C1B0C03F0F00302F4FE421A43B6
S31500006B98C1F3034318E01D490B680A6803F4FE4372
S31500006BA802F00F021A430B6803F0F0030CE0174AD1
S31500006BB81368116812681B0C120C02F0F00203F439
S31500006BC8FE431343C1F303421343B3402C400D4A1B
S31500006BD82343536370BD0E4B1A681B6802F00F02FD
S31500006BE8E2E7094A13681168126803F4FE4301F0E4
S31500006BF80F010B4302F0F002E6E700BF0080FFFF3B
S31500006C08FFFF0080002000401482E00F1082E00F92
S31500006C181882E00F38B50D46022383600022897872
S31500006C280446FFF78FFF2A7968786979130243EAE1
S31500006C38006343EA0143E97843EAC103E97909B104
S31500006C4843F00053297A09B143F00403A97909B13D
S31500006C5843F00203697A09B143F00103F32AA978DC
S31500006C6806D129B903289CBF23F0706343F08063DB
S31500006C7848B20028ACBF43EA411343F0E00323615E
S31500006C886369002823F4F21323F00703BCBF21F03D
S31500006C9880010B43297843EA4143E97A09B143F471
S31500006CA8804363616301640103F1844304F184440E
S31500006CB8A97A9960F32A04F5C8640CBF0123002356
S31500006CC8236038BD0C4B984210D90C4B984210D90A
S31500006CD8022201230A490B600A49D1F8003123F040
S31500006CE8807343EA0263C1F80031704700221346F5
S31500006CF8F0E70122FBE700BF0048E8010090D00357
S31500006D084000C84300400E400A490B4B88425A6867
S31500006D180BD90A4988420AD902F040715A6822F00A
S31500006D28407242EA01625A6070470021F6E7012183
S31500006D38F4E700BF40787D0100000E40005A620269
S31500006D4838B5064C41F67133256C236401F09EFB79
S31500006D58FFF7DAFF0DB10023236438BD00000E40AB
S31500006D68044BD3F84421D20703D4D3F84021104268
S31500006D78FBD1704700400E400C4AD2F89030516A59
S31500006D880B4B21F0300141F0100110B55162146B24
S31500006D98C0F3C31103310F2903EA040328BF0F21E7
S31500006DA8034343EA0173136310BD00BF00400E405E
S31500006DB800F8FF0F38B5054C41F67133256C23648E
S31500006DC8FFF7A2FF0DB10023236438BD00000E4073
S31500006DD8C0F30322013A38B50546092A13D8DFE875
S31500006DE802F023131212051619121C20104C00204B
S31500006DF8C5F3043508B1FFF7B3FF04F1047405EBD6
S31500006E08C404A400216038BD00200A4CF0E7012024
S31500006E18094CEDE71020094CEAE74FF48030084C9E
S31500006E28E6E70020074CE3E70020074CE0E700BF51
S31500006E38B0400E40C0400E40E0400E40E8400E40D4
S31500006E48F0400E4050410E4000400E4000F00F004A
S31500006E580138072848D8DFE800F0040F1947232D22
S31500006E684735244BD3F8943003F00703023B022B33
S31500006E783CD8214AD05C70471E4BD3F8803003F0CB
S31500006E880703013B032B33D81C4AF3E7194BD3F806
S31500006E98843003F00703013B032B29D8184AE9E796
S31500006EA8144BD3F8883003F00703013B032B1FD894
S31500006EB8144ADFE70F4B1B6F13F0010F14BF0920AD
S31500006EC8072070470B4BD3F85C3103F03003202BB7
S31500006ED806D0302B06D0102B0CBF07200120704798
S31500006EE80420704708207047002070470520704727
S31500006EF80120704700400E409410030097100300CD
S31500006F089B1003009710030008B50146FFF79EFF84
S31500006F181B4B994211D01B4B994212D01A4B9942DE
S31500006F2804D11A4BD3F8800000F007000138032873
S31500006F3824D8DFE800F00A0E1612144BD3F88400A2
S31500006F48F2E7124BD3F88800EEE7BDE8084001F0F7
S31500006F5813BBBDE8084001F015BBBDE8084001F0C9
S31500006F680EBB01F0BBFA094BD3F80031C3F300633B
S31500006F785A1C01239340B0FBF3F008BD0020FCE740
S31500006F88030020000500240002001E0000400E40F9
S31500006F9800F47810B0F5801F08B500F0828016D886
S31500006FA8B0F5802F35D005D868B1B0F5003F3BD095
S31500006FB8002008BDB0F5402F3CD0B0F5602F5CD05E
S31500006FC8B0F5202FF4D1BDE8084001F063BAB0F55A
S31500006FD8F01F37D012D8B0F5B01F38D0B0F5D01F93
S31500006FE840D0B0F5A01FE3D13448FFF78DFF344BEE
S31500006FF8D3F8303103F00F03D840DAE7B0F5101FA5
S3150000700839D0B0F5481F3FD0B0F5001FD0D12D4874
S3150000701819E001F03FFA2A4BD3F80C31C3F30823E1
S315000070280133B0FBF3F0C4E701F034FA244BD3F88C
S315000070380831F3E701F02EFA214BD3F81431C3F3E4
S315000070480423EDE72048BDE80840FFF75DBF1E486A
S31500007058FFF75AFF1A4BD3F8202102F00F0201233B
S315000070689340DEE71748FFF74FFF154BD3F8282163
S3150000707802F00302F3E71148E5E71448FFF7E6FED6
S3150000708807280ED009289DE71148FFF7DFFE0728D5
S3150000709807D0082808D004288AD1BDE8084001F09E
S315000070A82FBA0C4B186884E701F0F4F9044BD3F8AF
S315000070B80031C3F3042303FB00007AE7050024002C
S315000070C800400E400300200002001E0006000E00CD
S315000070D8B80032003C1C00200E4B5A6A12F0300FE2
S315000070E804D0202913D0302900D011B94FF440021A
S315000070F800E0094AD3F8901032EA0101FAD15202A7
S3150000710846BFD3F8A000C0F38020012070474FF493
S315000071180002EFE700400E40FF03E10702280AD10C
S3150000712829B1064B4FF48060C3F8A800596612B11E
S315000071380220FFF7D1BF0120704700BF00400E4074
S31500007148F8B504284ED8DFE800F00A03116D72007E
S31500007158802640240623072500294FD046E04FF411
S3150000716800764FF4807408230925F5E7002942D0F4
S31500007178314C636A13F0300F35D1636ADB0705D5E6
S31500007188636A23F0300343F0100363620424022386
S315000071980325294E3466294E33449B001F68002F69
S315000071A8FCD0FAB13544AD002B68002BFCD0022880
S315000071B818D1B9B1204E716A11F0010118D0012217
S315000071C82021FFF7ABFFD6F89C7001220021022090
S315000071D8FFF7B6FFC7F30A00FFF7CEFD34662B6844
S315000071E8002BFCD0F8BD0424022303250021D0E798
S315000071F8FFF772FFE7E70826022303250E49012059
S315000072080E6600FA03F3D1F890001842FBD1002A63
S31500007218E8D00123084A03FA05F5D2F890302B4244
S31500007228FBD1DFE7012402260023254694E7202622
S315000072381024042305258FE700400E408004F21031
S3150000724800F00F00013810B5072842D8DFE800F033
S315000072580F043D413B5B4166494C0139092938D841
S31500007268DFE801F04F383F373746373737350239C9
S3150000727803292ED8DFE801F02402181E0120032472
S3150000728801221146FFF75CFFFFF75AFD3D4B3E48CA
S315000072985C67FFF77DFEFFF715FD01F01FF900217A
S315000072A8BDE81040FFF786BD3848FFF70BFD022002
S315000072B80446E5E73548FFF705FD01240320DFE727
S315000072C800200424DCE7324CC7E7324CC5E7042328
S315000072D8236010BD012211460020FFF731FF02236B
S315000072E8F6E7012211461046FFF72AFF0123EFE7CA
S315000072F801F0F4F8FFF7E6FC274B01221A60032396
S31500007308E6E70023E4E7072904D00929E1D11D4B64
S31500007318012201E01B4B00221A67DAE70139072927
S31500007328D7D801A353F821F083730000DB7200005D
S31500007338DB72000075730000DB720000DB72000070
S31500007348677300005173000003220E49D1F85C31BF
S3150000735823F0300343EA0213C1F85C31B9E701228E
S3150000736811460420FFF7ECFE0122EEE70122114642
S315000073780220FFF7E5FE0222E7E70022E5E700BF65
S3150000738880400E4000400E4000050A000148E80112
S3150000739888400E4084400E400016C84310B5044687
S315000073A81120FFF753FD012200210220FFF7C8FE36
S315000073B81A4A217C536A23F00103022908BF43F0C5
S315000073C801035362164B21781960936AE17A23F018
S315000073D807030B439362A188637A43EAC123D36206
S315000073E8136BA07A217A03F07F630343E08843EAAC
S315000073F8C02343EAC11303310F2928BF0F2143EAEB
S3150000740801731363A37B617B1B0143EA0133E17BB1
S315000074180B43217B43EA0143536310BD00400E40F2
S31500007428A004C843EFF3108072B6704700B962B67D
S315000074387047602383F311887047002383F311880C
S315000074487047EFF31180602383F31188704780F348
S3150000745811887047EFF31083DB0706D4EFF311802A
S315000074685F2894BF00200120704701207047000064
S315000074784109054A00F01F0352F82100D840C043CD
S3150000748800F00100704700BF00E100E010B50446B7
S31500007498EFF31083DB0733D4FFF7EAFF00282ED17A
S315000074A8002CA7BF04F1604404F5614404F00F04FE
S315000074B8144BACBF94F800231A5D5209EFF31183FD
S315000074C813B1B2EB531F1BD20F4C6368C3F3080307
S315000074D8ABB1103BDBB259B20029B5BF03F00F03BD
S315000074E801F16043043B03F56143B6BF1B1993F8EA
S315000074F80003187E4009824234BF0020012010BDD7
S315000075080120FCE714ED00E000ED00E01848194BF7
S31500007518C26C1B88C2F303222833013202EB8201B4
S3150000752803EB5303B3FBF1F3C16C013B072B21F0CB
S31500007538EE6128BF072341F4801141EA0363C3645F
S315000075480D4BB3F90030002B10DB2833510801EB43
S31500007558420203EB5303B3FBF2F3026D072B28BF7A
S31500007568072322F0700242EA03130365704700BF3F
S3150000757800300E402225002024250020084B1A78CA
S31500007588013A012A0BD8074A126C02F00302012AB3
S3150000759803D105490A68D203FCD503221A7070473D
S315000075A82C25002000300E407C300E40054A064B44
S315000075B8D16C1960D36C23F47F4343F4EE43D36450
S315000075C8FFF7A4BF00300E402825002008B5054B5C
S315000075D8D3F89020044B11201A60FFF737FC034BB1
S315000075E8187008BD00400E401C2500202D250020DF
S315000075F8114A38B545F60E03104CD2F88051C2F838
S315000076088031216821F0AA01C905C90D11660C4A05
S315000076181178052902D01120FFF712FE2368DA0730
S315000076285EBF054B02221A66EB0742BF024B0022D9
S31500007638C3F8802138BD00BF00400E401C2500203D
S315000076482D2500207047704710B5044608B1FFF78E
S31500007658BDFF0E4A136943F004031361FFF7A6FF43
S31500007668FFF78CFFFFF7EEFF30BFFFF7ECFF084B85
S315000076781A68084BDA64FFF749FF1CB1BDE81040E9
S31500007688FFF7B6BFBDE8104000F028BF00ED00E0E8
S315000076982825002000300E4010B5044608B1FFF733
S315000076A895FF164BD3F8802145F60E01D20748BF41
S315000076B80022C3F880114FF42071196648BFC3F839
S315000076C880210F4A136943F004031361FFF76EFF25
S315000076D8FFF754FFFFF7B6FF30BFFFF7B4FF094BBC
S315000076E81A68094BDA64FFF711FF1CB1BDE81040B0
S315000076F8FFF77EBFBDE8104000F0F0BE00400E4028
S3150000770800ED00E02825002000300E400378002B0D
S31500007718437870B50E4C14BF04260026002B8378D8
S31500007728A16914BF02250025002B037921F03F012A
S3150000773843EA0103C17814BF08220022012908BFC1
S3150000774843F0010333432B431343A36170BD00BFCA
S3150000775800300E40194B4AF6E85210B55C6B5A6376
S315000077689A6FD207FCD41B6C13F003031EBF144A8E
S3150000777801211160834203D108B9114B186010BD6D
S3150000778823B9012802BF0F4B02221A700B4A114671
S31500007798936FDB07FCD4136C23F0030303431364D2
S315000077A88B6F13F00103FBD10030054A18BF012087
S315000077B8012C106008BF4B63E1E700BF00300E40A4
S315000077C8B40AC6432C25002070B51D4D4AF6E8526A
S315000077D8AC69AE69AA60A86924F4403410F00100C7
S315000077E844F4003446F4403607D12B6C03F0030307
S315000077F8013B012B01D8FFF7ADFFAB69DB070FD5BE
S3150000780872B6104B4AF6E8521A600F4A136843F0EC
S3150000781880031360A2F58872136843F480731360BB
S31500007828FFF7C4FEFFF7AAFE054B9C619E619C61AB
S315000078389E619C619E619C619E619C6170BD00BF5A
S3150000784800300E4090310E4098310E40A0F5E163AD
S31500007858B3F5966F2DE9F04703D900210846BDE830
S31500007868F0875F4C5F4BD4F86851DB6CB0F5E16F7D
S315000078781FBF4FEA156AC5F307484FF496694FF4D8
S31500007888E16701BFC5F3072A5FFA85F84FF4167951
S315000078984FF49667B0F5E166C3F3017C18BF01267D
S315000078A846EA0C2E40F201139E455BD0BEF5817F59
S315000078B809D2BEF1010F1BD05DD3BEF5807F5DD026
S315000078C800252B4619E040F201239E4550D005D8E5
S315000078D8BEF5007FF4D1D4F870310BE0BEF5407FD9
S315000078E84FD040F201339E45EAD1D4F878313BE0D7
S315000078F8D4F87431C3F30725DBB2C71BAAEB080E0D
S3150000790807FB0EFEBEFBF9FEC644D645A5D8A5EB79
S31500007918030807FB08F7B7FBF9F73B44AB424FF000
S3150000792800079AD882B1DFF8BC80D8F85C5025F4F5
S31500007938FE4525F00205B0F5E16F45EA0E2518BFAC
S3150000794802273D43C8F85C50002946D0226DD2B2C2
S31500007958032A19D8B0F5E16FD4F87C211FD0C2F3F9
S3150000796807221DE0D4F874311D0EC3F30743C4E79C
S31500007978D4F87831BEE7D4F86C31BBE7D4F86C316B
S31500007988F2E7D4F87031EFE7BCF1020FD4F88021A2
S315000079981ED0BCF1030F1ED0BCF1010FDFD0D2B24E
S315000079A8120312F4702F7FF458AF0E4CE06E20F4D9
S315000079B870400243E266626E22F4FF72E72B22F001
S315000079C8010228BFE723324342EA4303636645E7D9
S315000079D8C2F30742E4E7120EE2E701213EE700BFE1
S315000079E8B081E00F00300E40194B1A6FD96CC907E9
S315000079F802F0070214D5012A12D9132823D91438FC
S31500007A0813288CBF102308231148013BC26C1903A5
S31500007A1822F47F4241EA03231343C364FFF776BD8A
S31500007A28DB6CD90706D4012A04D809280BD90A38E9
S31500007A380928E6E7064BDB6C13F00103E4D0012ABC
S31500007A4803D82728DDE70423DEE70023DCE700BFA9
S31500007A5800300E40054A064B1B68136F23F00703D8
S31500007A681843044B10671888FFF7BEBF00300E4056
S31500007A788009C64320250020534B37B502229A6356
S31500007A889B6B03F00F039342054603D00024204660
S31500007A9803B030BD4D4BD3F86C3101331DD04C4B80
S31500007AA81A68043B1B681A604A4B1A68043B1B6831
S31500007AB81A60494B1A68043B1B681A60474B1A68D8
S31500007AC8043B1B681A60464B1A68043B1B681A601D
S31500007AD8444B1A68043B1B681A60E988B5F90C0020
S31500007AE84A2965D9B1F5FA7F64D340F6C31399429A
S31500007AF894BF4FF000514FF04051334CE36C23F0E4
S31500007B08405323F001030028A8BF43F001030B43A9
S31500007B18E364E36E43F08073E366334B186800B1A1
S31500007B280420FFF797FF236E23F0C0432366E36C18
S31500007B3843F0060301A8E36400F0F4FA9DF8050093
S31500007B48012812D19DF80430022B0ED827490B784C
S31500007B585BB9274A136843F001031360236E254A6D
S31500007B681A40254B134323660870244B298919802C
S31500007B78234BB5F90C201A80224BA8881880FFF7EA
S31500007B8833FFAB7BCBB1012B1BD001221146688892
S31500007B98FFF75CFE044600283FF478AFAB7A1A4A32
S31500007BA86878003318BF01231360FFF7D3FD6EE72B
S31500007BB80021A2E74FF080519FE7034B134A9A65CD
S31500007BC8E3E7014B124AFAE700300E40B081E00FB6
S31500007BD83C80E00F4480E00F4C80E00F5480E00FBB
S31500007BE85C80E00F6480E00F8009C6432C250020E6
S31500007BF844300E40000F0EF0B4C0400B2225002082
S31500007C0824250020202500209407C64377402057C6
S31500007C18372110B7144B1A6830B5002814BF02254F
S31500007C280025012A06BF4AF6E851196000220228F3
S31500007C380E4804680CBF24F0740444F0740404600D
S31500007C480B48046844F0080404600A4C216821F4CF
S31500007C58406141EA85212160016821F0080101603F
S31500007C680AB100221A6030BD90310E4064310E40D0
S31500007C789C310E403C400E40044AD2F8443423F06E
S31500007C8803031843C2F84404704700BF00A000402D
S31500007C98072A70B501F003014FF00F0523D89600A7
S31500007CA81A4CB540256004F10074B04020600320EA
S31500007CB8B04001FA06F61649086001F100710E6037
S31500007CC81449114489000B609DF81030C1F88030C2
S31500007CD8012303FA02F2104BC3F824249DF814304A
S31500007CE8C1F8003370BDA2F10804A4000B4EA540EC
S31500007CF835600B4DA04028600320A04001FA04F42B
S31500007D080849086001F100710C60D9E700A4004435
S31500007D1808A400448020851000A0004004A4004464
S31500007D2804A400460CA40044F0B54AB130261E4C03
S31500007D38012546438D4034440BB304F1C0642560E5
S31500007D483024444304F18044072904F5204419D813
S31500007D5865688E000F27B74025EA070502FA06F67A
S31500007D683543656052B9012202FA01F130225043C7
S31500007D780D4A0244A3B102F1C0621160F0BD04F1DC
S31500007D888064DCE701F18045083DA668AD000F2751
S31500007D98AF4026EA070602FA05F53543A560E1E78E
S31500007DA802F18062E9E700BF0CA00040074B4FF4E0
S31500007DB88072C3F88020BFF34F8FBFF36F8F044BD9
S31500007DC804480021D9661962FFF702B800E100E00D
S31500007DD800200E4000450A00034B03449B0081F037
S31500007DE801011960704700BFA001F11010B50446E3
S31500007DF801211148FEF7ECFFB4F8013022785BBA8E
S31500007E089BB243EA02630D4A136000231362D362EE
S31500007E1853634FF00043D3664FF0FF339366084A27
S31500007E284FF48071C2F88011E3785B01DBB282F807
S31500007E380833116010BD00BF00450A0000200E403F
S31500007E4800E100E02DE9F041254D91F80BE091F8AD
S31500007E580AC00F7B0C464FF03008C3B2012608FB58
S31500007E6800509E402368497BC0F880304FEA0E5385
S31500007E7843EA0C4343EA475322F00302C0F888104A
S31500007E88C0F88430C0F89820AE66FFF7DAFAEB6ED1
S31500007E983343EB66237A13B16B6B33436B63637AB5
S31500007EA813B1EB6A3343EB6222792B6822B1D243D2
S31500007EB8120262F47F42134062790AB143EA02234E
S31500007EC8A2790AB123EA0203E27902B11343044A0A
S31500007ED81360044B1E60D663BDE8F041FFF7B7BADE
S31500007EE800200E4028200E4410B5C0B2012484405C
S31500007EF8FFF7A7FA054AD36E23EA0403D366044BB1
S31500007F081C60BDE81040FFF7A2BA00BF00200E4073
S31500007F1820200E44F8B5C3B201259D400446FFF75C
S31500007F2890FA0A4B30221E6E9F6A02FB0434D4F87C
S31500007F388C40FFF78CFA3D4206D1C4F30A1008B903
S31500007F48354200D10130F8BD0020FCE700200E4084
S31500007F58036CDB0702D4436C0B42FCD17047CB435E
S31500007F685B0003F00A0310B541EA03020221FFF79A
S31500007F78EFFF426010BD436C002BFCD10122026466
S31500007F88EA22426040F2F9720360C360036143610A
S31500007F9883634263C363436583650364704710B5AF
S31500007FA802460C469368DB06FCD540211046FFF7CF
S31500007FB8CFFF946210BD0000044B41F671321A647B
S31500007FC89A6822F001029A60704700BF00000E40CE
S31500007FD8034B9A6822F001029A6000221A647047DD
S31500007FE800000E4010B590FAA0F2054C2368B2FACC
S31500007FF882F223EA000091400143216010BD00BFD0
S3150000800800500E40014B01229A60704700500E4006
S31500008018194BF0B55C68194D194E1A4F00231846CE
S31500008028D6F800C0EA181CF0040F51685A5908D14E
S31500008038B2F5806F03D018D8B2F5007F01D141F4AC
S315000080488071D7F800C01CF4807F18BF21F01C018E
S31500008058144202D0214208BF10430833482BDFD10F
S31500008068C30348BF20F01C00F0BDB2F5006FE6D090
S31500008078B2F5803FE2E700BF00500E40A0100300B3
S31500008088E841E00F88300E408B784A789B0143EA36
S3150000809882030A781343CA7843EA02130A7943EA41
S315000080A8C2234A7943EA02338A79043043EA4243CF
S315000080B80001014A135070470020044042780179B4
S315000080C80378002A827870B514BF04260026002A91
S315000080D8C27814BF10250025002A42794FEA0232D9
S315000080E842EA012242EA0302837914BF20240024CB
S315000080F8002BC37942EA034343EA0603027A43EABA
S31500008108050314BF4FF4004100212343002A14BF7E
S315000081184FF4003200220B431343014A136070BD2B
S31500008128002004400B4A536911699B0003F03C0385
S31500008138C1F381110B438370136903F03F03437046
S315000081489369D26903F0F003C2F303121343037071
S31500008158704700BFD0FF0FE02DE9F04F0C780CB93F
S3150000816802234360002343624B78CA7891F802B031
S315000081788D7A91F808A091F8069091F80780002B5F
S315000081884B7A4FEA024214BF4FF0400E4FF0000EF2
S3150000819842EA0B62002B14BF8023002342EA0A023C
S315000081A8002DCD7A42EA892214BF4FF0200C4FF0F9
S315000081B8000C42EA0822002D0D7B42EA0E0214BF8B
S315000081C8102700271343002D0D79497943EA0C033C
S315000081D814BF082600263B43002D14BF4FF4005554
S315000081E800253343002914BF4FF0805100212B434B
S315000081F80B4303600CB101234360BDE8F08FF0B573
S31500008208537814781B0643EA846394792343947855
S3150000821843EA0443D47843EA0433147943EA8423CB
S31500008228547943EA0423D479002C147A14BF4FF006
S3150000823880470027002C547A14BF4FF000560026BA
S31500008248002C947AD27A43EA027343EA070314BFEE
S31500008258102500253343002C01F1060114BF042420
S3150000826800242B43090123434350F0BD70B505464E
S3150000827816461C4619B91448FEF78AFE0146202CF4
S3150000828808D001D8ECB170BD402C18D0602CFAD1BA
S31500008298042200E0082206FB02F35A0802EB411208
S315000082A8B2FBF3F2094B203A03EAC2022B6823F029
S315000082B860032B602B681C432C606A61E3E7062287
S315000082C8E9E71022E7E700BF40410500F8FF7F0015
S315000082D8CB435B0003F00A03C360C160704700002C
S315000082E840F6AA63C36041F20502002303604260B8
S315000082F80A4A83604361C3648264094A03669042FA
S31500008308436702F580628367C36701D0904200D154
S3150000831803659042836508BFC3657047F9FF01008E
S315000083280000014038B505460C46FFF7D9FF8B7C9F
S315000083381BB1036843F080430360E37C1BB1237DD4
S3150000834843F08003AB65228A637B1343E2891343B8
S315000083586B60D4E90112237B2846FFF787FF637D0C
S315000083681BB12B6843F480332B60A37DE27D1B078A
S31500008378120502F4E00203F0E04313432B666B6F29
S3150000838823F030036B676A6F237E13436B6723788A
S31500008398EB6038BD03691B06FCD5C069C0B27047DF
S315000083A803695B06FCD5416370470368DB060FD497
S315000083B847F231538268D20701D5013BFAD10368E7
S315000083C803F001038B421EBF00F1047040010160F7
S315000083D870470368D90707D583689A0704D4836862
S315000083E8DB07FCD40123436070474B78CA78002B1F
S315000083F88B782DE9F04114BF4FF0020E4FF0000EB6
S31500008408002B14BF04230023002A0A7991F8078059
S315000084180C7814BF4FF0080C4FF0000C002A4A796C
S3150000842814BF20270027002A8A7914BF4026002671
S31500008438002A0A7A4FEA022242EA083291F80980AB
S3150000844842EA0402CC7A897A42EA084242EA01629E
S3150000845842EA0E0243EA020343EA0C0343EA07032D
S3150000846814BF102500253343002C14BF4FF00044D9
S3150000847800242B43234347F231528168C90701D5AB
S31500008488013AFAD10360BDE8F08100000048704760
S3150000849800F049020D4AD2F8943003F00703032B83
S315000084A811D0042B03D0022B0BD1094B00E0094B4A
S315000084B81868D2F80031C3F304230133B0FBF3F094
S315000084C87047054BF4E74FF40040F2E700400E40D2
S315000084D8441C00204C1C0020481C002008B5FFF74F
S315000084E8D9FF054BD3F80831C3F308230133B0FB92
S315000084F8F3F0024B186008BD00400E40401C0020F7
S31500008508014B1868704700BF441C0020054B1860D3
S31500008518054BD3F8943003F00703022B01D1FFF77C
S31500008528DDBF7047441C002000400E400E4B0F4A2A
S315000085389A60D3F8882042F47002C3F888200C4B5E
S315000085485A6D42F400525A651A6C22F003021A64F4
S31500008558084A136823F00103136052F8143C23F009
S31500008568805342F8143C704700ED00E000410000DB
S3150000857800300E4074300E404FF4004070474FF400
S315000085887A707047014B1868704700BF4C1C002072
S3150000859808B50C4B198A40F6A73291420AD11B8BB3
S315000085A81B0A012B0CD101280AD840F2022006F03A
S315000085B8BFFB05E040F628031B689B69DB02F2D483
S315000085C8012008BD00000000114B198A40F6A732A9
S315000085D8914206D11B8B1B0A012B16D04FF6FF7052
S315000085E8704740F628031B689B681A0E14BF4FF4A1
S315000085F8805000201A0C14BF4FF4807200221043DA
S31500008608002B18BF40F00100704700F003B800BF08
S3150000861800000000054B198A40F6A732914217BFA1
S3150000862840F62803588B1B685889704700000000DD
S3150000863870B50438C6B0FA2801F2E586DFE810F00E
S315000086481402E30EE30EE30E1D02E30EE30EE30E41
S31500008658E30EE30EE30EE30EB703A503E30EE30E04
S31500008668300AF403FF036E037D03E30E5404E30E9E
S31500008678E30E6C044301CB02F5021B018803E30EEB
S31500008688E30E1608E30EE30EE7012602880CE70C54
S31500008698A70C940C750CD40C140DE30EE30E1A05F6
S315000086A8A406A501C2054005080683063506E102AB
S315000086B8FB00B201E30EE30EE503F2052605E30E21
S315000086C8E30EE30EE30EE30EE30EE30E520196010C
S315000086D87D01E30EE30EE30E7407E30EE30EE30EED
S315000086E8E30EE30EE30EE30EE30EE30E5A077704FA
S315000086F8D306ED0689049E040405EA04E30ED404B1
S315000087082B07E30EEE08460A600A69097F09340951
S31500008718B10ADF09E30EC40A3D0CAF098E0A050B40
S31500008728F90A4F093909E80AE30EBB0163035A023D
S31500008738E30EE30E0C07BF04E30EE30E7905860D80
S31500008748230DA50DBD0D990DB10D470D5D0D2F0D11
S31500008758700D3B0DE30EE30EE30EE30EE30EE30EA0
S31500008768E30EE30E6D06E30EE30E30040A04E30E91
S31500008778FF00E30EE30ED60DE30E100EC80E4C0EE8
S31500008788820E9A0E360EE30E160B380BE30EE30E28
S31500008798E30EE30EE30E0D09670E280928086308A1
S315000087A8C7089708E30EE30EE30ED507A507E30E01
S315000087B81B085A08C9078608A50B9E02B502C002FF
S315000087C8E30EE30E570BE30E8E0BB50BE30EE30E2B
S315000087D8E30EE30E060AA90842048502E30E2F01FA
S315000087E88B08F407E80742084E08B107BD070008DA
S315000087F80B08260C420C5E0C520C010CFC0BE30E0B
S31500008808E30EE30EE30EE30E8E0EE30EF30DE30E18
S31500008818AB0EBC0E230EFC06E30EE30EE30EB0040D
S315000088281F07E30EE30E9A032E03510319030003F1
S31500008838E30E3B0292070124204646B070BD12ABF8
S3150000884801930AAB00930CAA24ABC549012012F088
S3150000885891FDBDF848309DF828202499BDF83000D0
S3150000886823F08EFB46AABF4902F8EC0D002012F051
S3150000887881FD0124E0E724AB0CAABB49012012F0D4
S3150000888879FD24999DF8300013F08AFE46AAB54969
S3150000889802F8D00D002012F06DFD0124CCE70CABD8
S315000088A824AAB249012012F065FD9DF830102498DB
S315000088B81AF0A2FD46AAAB4902F8D00D002012F024
S315000088C859FD0124B8E724A812F02AFB24A81DF0B4
S315000088D803F846AAA34902F8D00D002012F04AFD73
S315000088E80124A9E70CAA9F49012012F043FD24A9F7
S315000088F89DF8300013F052FE46AA9A4902F8D00DA8
S31500008908002012F037FD24A9082012F0F3FA9DF88A
S31500008918980012F0B7FABDF89A0012F0C3FA9DF85B
S315000089289C0012F0AFFA9DF89D0012F0ABFA9DF884
S315000089389E0012F0A7FA01247EE786230BAA89492E
S315000089488DF84830012012F015FD24A99DF82C0059
S3150000895813F02BFE46AA12AB02F8E80D84490093E1
S31500008968002024AB12F006FD012465E724A823F0B5
S3150000897811FF46AA7B4902F8D00D002012F0FAFC36
S3150000898824A812F0C0FC012456E724A823F0FEFE12
S3150000899846AA24AB02F8D00D7649002012F0EAFC6C
S315000089A8012449E746AA012402F8884D6D490020AA
S315000089B812F0E0FC40E70CAA6A49012012F0DAFC42
S315000089C824A99DF8300025F0A1F946AA654902F8C0
S315000089D8D00D002012F0CEFCBDF8900012F062FA1D
S315000089E89DF8920012F04EFA9DF8930012F04AFA9A
S315000089F89DF8940012F046FA9DF8950012F042FA96
S31500008A080DF19601082012F075FA012414E724A93D
S31500008A1812A813F089FD46AA12AB02F8E80D5549CB
S31500008A28002012F0A7FC24A9082012F063FABDF86A
S31500008A38980012F037FA9DF89A0012F023FA9DF87A
S31500008A489B0012F01FFA9DF89C0012F01BFABDF865
S31500008A589E0012F027FA9DF8A00012F013FA299842
S31500008A6812F034FA0124E7E646AA012402F8884DF2
S31500008A783C49002012F07EFCDEE646AA002002F8F9
S31500008A88880D384912F076FC0124D5E612AC082385
S31500008A98214624A88DF8303013F06EFD46AA0CAB9B
S31500008AA802F8EC0D344901940093002024AB12F02F
S31500008AB861FC0124C0E60CAA2A49012012F05AFCDE
S31500008AC824A99DF830001AF04FFD46AA254902F858
S31500008AD8D00D002012F04EFC9DF8900012F0D2F94D
S31500008AE89DF8910012F0CEF99DF8920012F0CAF99D
S31500008AF80124A1E60CAA1B49012012F03BFC24A97B
S31500008B089DF8300024F0BCF846AA164902F8D00DA4
S31500008B18002012F02FFCBDF8900012F0C3F9BDF842
S31500008B28920012F0BFF99DF8940012F0ABF99DF887
S31500008B38950012F0A7F99DF8960012F0A3F99DF892
S31500008B48970012F09FF9012476E613F093FC46AAE3
S31500008B58044902F8880D002012F00CFC01246BE68B
S31500008B6828110300761103002D1103004A11030092
S31500008B7825300300461103003011030012AC0BAA7E
S31500008B88BD49012012F0F6FB224624A99DF82C00C7
S31500008B9813F072FC46AA24AB02F8E80DB749009414
S31500008BA8002012F0E7FB012446E613F069FC46AA0A
S31500008BB8B14902F8880D002012F0DCFB01243BE6DF
S31500008BC813F05CFC46AAAC4902F8880D002012F0A6
S31500008BD8D1FB012430E60CAAA749012012F0CAFBF2
S31500008BE824A812F09DF924A99DF830001CF018FF5E
S31500008BF846AAA14902F8D00D002012F0BBFB0124B9
S31500008C081AE60BAA9C49012012F0B4FB0CAA12AB77
S31500008C189B49012012F0AEFB46AA012402F8884DB2
S31500008C289549002012F0A6FB06E61EF0B1F946AA01
S31500008C38914902F8880D002012F09CFB0124FBE5FF
S31500008C4812AB00930BAA0CAB8E49012012F092FBD3
S31500008C589DF848209DF830109DF82C0026F07CFFE2
S31500008C6846AA854902F8880D002012F083FB0124E4
S31500008C78E2E512AB0CAA8449012012F07BFB9DF9B0
S31500008C8848109DF8300026F065FF46AA7A4902F892
S31500008C98880D002012F06EFB0124CDE512AB02937D
S31500008CA80CAB01930BAB00930DF126020AAB774987
S31500008CB8012012F05FFB9DF848409DF930309DF881
S31500008CC82C209DF8281000949DF8260026F03EFFDB
S31500008CD846AA694902F8880D002012F04BFB0124C8
S31500008CE8AAE512AA6449012012F044FB9DF848003F
S31500008CF826F02EFF46AA604902F8880D002012F0D9
S31500008D0839FB012498E524F0F3FF46AA5A4902F8EC
S31500008D18880D002012F02EFB01248DE524A812F000
S31500008D287FF924A81CF0E4FE46AA534902F8D00DA0
S31500008D38002012F01FFB01247EE51AF0DBFB46AA91
S31500008D484D4902F8880D002012F014FB012473E542
S31500008D5812AA4949012012F00DFB9DF848001CF0A3
S31500008D6821FA46AA444902F8880D002012F002FBAF
S31500008D78012461E514F07DF946AA3F4902F8880DF9
S31500008D88002012F0F7FA012456E512AA3A49012002
S31500008D9812F0F0FA9DF8480013F0E3FF46AA3649A8
S31500008DA802F8880D002012F0E5FA012444E50AAB22
S31500008DB804930DF12603039309AB029324AB0193A5
S31500008DC812AB00930DF122020CAB3149012012F0CF
S31500008DD8D1FA9DF8284002949DF8264001949DF802
S31500008DE82440BDF89030BDF84820BDF830100094F6
S31500008DF89DF8220016F054F846AA1F4902F8EC0D11
S31500008E08002012F0B7FA012416E524A812F088FA11
S31500008E1824A823F0BDFC46AA174902F8D00D002065
S31500008E2812F0A8FA012407E524AA1A49012012F02B
S31500008E38A1FA194BBDF890201A800124FCE424AA53
S31500008E481449012012F096FA144BBDF890201A80A6
S31500008E580124F1E412AA0849012012F08BFA9DF8C0
S31500008E6848001CF055FB46AA034902F8880D002065
S31500008E7812F080FA0124DFE47611030034110300AE
S31500008E883E11030045110300381103003B1103008E
S31500008E984111030032110300B4200020BA2000203B
S31500008EA812AABD49012012F065FA9DF948001AF088
S31500008EB89BFB46AAB94902F8880D002012F05AFA17
S31500008EC80124B9E412AAB549012012F053FA9DF813
S31500008ED8480013F0CDFA46AAB04902F8880D0020DA
S31500008EE812F048FA0124A7E40CAB00930BAA24ABB2
S31500008EF8AB49012012F03EFA9DF8302024999DF8DE
S31500008F082C0019F071FF46AAA44902F8D00D0020DA
S31500008F1812F030FA01248FE41AF02EF846AA9F4977
S31500008F2802F8880D002012F025FA012484E412AA1A
S31500008F389A49012012F01EFA9DF8480022F003FC17
S31500008F4846AA964902F8880D002012F013FA012461
S31500008F5872E408230CAA91498DF84830012012F0D2
S31500008F6809FA24A99DF8300023F058F912AB24AA6F
S31500008F788C49002012F0FEF901245DE412AA874903
S31500008F88012012F0F7F99DF8480023F05FF946AA88
S31500008F98854922F8880D002012F0ECF901244BE4EB
S31500008FA824A81DF065F946AA7C4902F8D00D0020D0
S31500008FB812F0E0F924A811F0FAFF01243CE446ABCC
S31500008FC8082203F8E82D774924AA012012F0D2F9DD
S31500008FD824A823F03FFA46AA704902F8D00D0020CB
S31500008FE812F0C8F9012427E40CAA6C49012012F0F2
S31500008FF8C1F924A99DF8300013F068FA46AA674912
S3150000900802F8D00D002012F0B5F924A811F0BCFF23
S31500009018012411E4082312AA63498DF8303001208F
S3150000902812F0A8F924A9BDF848001AF041FC46AA8E
S315000090380CAB02F8EC0D5D490093002024AB12F04E
S3150000904899F90124FFF7F8BB46AB082203F8E82D87
S31500009058544924AA012012F08DF924A81AF00CFC10
S3150000906846AA514922F8D00D002012F083F90124AE
S31500009078FFF7E2BB21F060F946AA484902F8880DD5
S31500009088002012F077F90124FFF7D6BB0CAB00934A
S3150000909824AA0BAB4649012012F06CF99DF8302042
S315000090A89DF82C10BDF8900012F062FC46AA3B49C8
S315000090B802F8D00D002012F05DF90124FFF7BCBBC1
S315000090C808AB0BAA3B49009301200CAB12F052F9EE
S315000090D824A811F041FF09AB12AACDE90032029388
S315000090E80DF121020DF122033349012012F042F954
S315000090F8129B03939DF8243002939DF82230019326
S315000091080AAC9DF821309DF82020BDF83010049453
S315000091180093BDF82C0024AB13F044F946AA234665
S3150000912802F8F20D2549002012F024F90124FFF770
S3150000913883BB08238DF821308DF826300DF12203E4
S3150000914802930BAB01930DF1210324AC009308AAFB
S3150000915812AB1B4901200AAE0CAD12F00BF99DF8B3
S315000091682230BDF82C20009412A99DF82000029602
S31500009178019513F087F946AA0DF1260302F8F40DB6
S315000091880F490093CDE901562346002012F0F2F864
S315000091980124FFF751BB00BF5A30030076110300C4
S315000091A849110300161B0300321103002530030082
S315000091B84D110300511103005B1103004611030012
S315000091C8551103000CAABF49012012F0D3F824A8B0
S315000091D811F0C2FE0DF1260312AACDE90032029360
S315000091E80DF1220209ABB849012012F0C3F8129911
S315000091F801910BAC9DF826109DF824309DF822208D
S3150000920802940091BDF8300024A913F073F846AA19
S31500009218234602F8F00DAD49002012F0ABF8012400
S31500009228FFF70ABB0CAB24AAA949012012F0A2F841
S315000092389DF83010BDF890001EF00AFA46AAA54916
S3150000924802F8D00D002012F095F80124FFF7F4BAC1
S3150000925824A811F081FE0AAB12AACDE901320393C4
S315000092680DF1260300930DF1220209AB9A4901205C
S3150000927812F080F8129801900CAC9DF828009DF821
S3150000928826309DF824209DF822100294009024A8E8
S3150000929813F03CF846AA234602F8EC0D8B49002049
S315000092A812F068F80124FFF7C7BA24A811F054FE93
S315000092B80DF1260312AACDE90332059309AB0293F1
S315000092C80DF1220301930CAB009308AA0DF12103BB
S315000092D88249012012F04EF8129803909DF8260054
S315000092E802909DF8240001900BAC9DF82200BDF871
S315000092F830309DF821209DF820100494009024A871
S3150000930813F01CF846AA234602F8F00D6F49002010
S3150000931812F030F80124FFF78FBA0CAA009224AB9A
S315000093286F49012012F026F824999DF8300012F0B2
S31500009338F8FF46AA674902F8D00D002012F01AF87D
S315000093480124FFF779BA0CAA5E49012012F012F837
S3150000935824A811F001FE0AAA009212AB6049012066
S3150000936812F008F8129B9DF82820BDF8300024A9B1
S3150000937813F04CF846AA574902F8EC0D002011F0F4
S31500009388F9FF0124FFF758BA0CAB0DF12202554933
S31500009398012011F0EFFF24A811F0DEFD0DF12603E0
S315000093A812AA01930092504909AA012011F0E2FF7E
S315000093B8129A01920BAC9DF826209DF82430BDF830
S315000093C83010029400929DF8220024AA12F08AFF17
S315000093D846AA234602F8F00D3C49002011F0CAFFC0
S315000093E80124FFF729BA08238DF830300CAB0BAAF5
S315000093F800933E4924AB012011F0BCFF24A99DF837
S315000094082C0023F04BF846AA324902F8D00D00206A
S3150000941811F0B0FF0124FFF70FBA24AB12AA3149A5
S31500009428012011F0A7FFBDF890109DF8480022F022
S31500009438DFFE0124FFF700BA24A81CF045FF46AA60
S31500009448244902F8D00D002011F094FF24A811F049
S31500009458AEFD0124FFF7F0B946AB082203F8E82D64
S3150000946812AA0092224924AA012011F083FF9DF82E
S31500009478481024A823F042F80124FFF7DDB924AAEE
S315000094881449012011F076FF9DF890001FF0CCFAE0
S315000094980124FFF7D1B90CAA0E49012011F06AFF81
S315000094A824A811F07BFD24A99DF8300013F024F8B8
S315000094B846AA084902F8D00D002011F05BFF0124E6
S315000094C8FFF7BAB9321103005B1103004611030016
S315000094D857110300761103005A11030060110300A7
S315000094E82A3003007F1103005C11030025300300B6
S315000094F8751103000BAB24AA01930092C04912AA66
S31500009508012011F037FF249A9DF82C10BDF8480069
S3150000951812F0F4FC46AABB4902F8E80D002011F047
S3150000952829FF0124FFF788B908238DF8283012ABE4
S3150000953801930AAB00930CAA24ABB349012011F09E
S3150000954819FFBDF84820BDF8300024A913F02BF800
